{
  "contractName": "Manager",
  "abi": [
    {
      "inputs": [],
      "name": "contractOwner",
      "outputs": [
        {
          "internalType": "address",
          "name": "",
          "type": "address"
        }
      ],
      "stateMutability": "view",
      "type": "function",
      "constant": true
    },
    {
      "inputs": [
        {
          "internalType": "string",
          "name": "",
          "type": "string"
        }
      ],
      "name": "members",
      "outputs": [
        {
          "internalType": "address",
          "name": "",
          "type": "address"
        }
      ],
      "stateMutability": "view",
      "type": "function",
      "constant": true
    },
    {
      "inputs": [
        {
          "internalType": "address",
          "name": "",
          "type": "address"
        },
        {
          "internalType": "string",
          "name": "",
          "type": "string"
        }
      ],
      "name": "userPermits",
      "outputs": [
        {
          "internalType": "bool",
          "name": "",
          "type": "bool"
        }
      ],
      "stateMutability": "view",
      "type": "function",
      "constant": true
    },
    {
      "inputs": [
        {
          "internalType": "string",
          "name": "name",
          "type": "string"
        },
        {
          "internalType": "address",
          "name": "member",
          "type": "address"
        }
      ],
      "name": "setMember",
      "outputs": [],
      "stateMutability": "nonpayable",
      "type": "function"
    },
    {
      "inputs": [
        {
          "internalType": "address",
          "name": "user",
          "type": "address"
        },
        {
          "internalType": "string",
          "name": "permit",
          "type": "string"
        },
        {
          "internalType": "bool",
          "name": "enable",
          "type": "bool"
        }
      ],
      "name": "setUserPermit",
      "outputs": [],
      "stateMutability": "nonpayable",
      "type": "function"
    },
    {
      "inputs": [],
      "name": "getTimestamp",
      "outputs": [
        {
          "internalType": "uint256",
          "name": "",
          "type": "uint256"
        }
      ],
      "stateMutability": "view",
      "type": "function",
      "constant": true
    }
  ],
  "bytecode": "0x6080604052600080546001600160a01b0319163317905534801561002257600080fd5b506105dd806100326000396000f3fe608060405234801561001057600080fd5b50600436106100625760003560e01c8063188ec3561461006757806319f225a514610081578063540e2617146101395780636957a0b2146101e85780637dd13a95146102a8578063ce606ee014610370575b600080fd5b61006f610378565b60408051918252519081900360200190f35b6101376004803603606081101561009757600080fd5b6001600160a01b038235169190810190604081016020820135600160201b8111156100c157600080fd5b8201836020820111156100d357600080fd5b803590602001918460018302840111600160201b831117156100f457600080fd5b91908080601f016020809104026020016040519081016040528093929190818152602001838380828437600092019190915250929550505050351515905061037c565b005b6101376004803603604081101561014f57600080fd5b810190602081018135600160201b81111561016957600080fd5b82018360208201111561017b57600080fd5b803590602001918460018302840111600160201b8311171561019c57600080fd5b91908080601f016020809104026020016040519081016040528093929190818152602001838380828437600092019190915250929550505090356001600160a01b031691506104699050565b61028c600480360360208110156101fe57600080fd5b810190602081018135600160201b81111561021857600080fd5b82018360208201111561022a57600080fd5b803590602001918460018302840111600160201b8311171561024b57600080fd5b91908080601f016020809104026020016040519081016040528093929190818152602001838380828437600092019190915250929550610541945050505050565b604080516001600160a01b039092168252519081900360200190f35b61035c600480360360408110156102be57600080fd5b6001600160a01b038235169190810190604081016020820135600160201b8111156102e857600080fd5b8201836020820111156102fa57600080fd5b803590602001918460018302840111600160201b8311171561031b57600080fd5b91908080601f016020809104026020016040519081016040528093929190818152602001838380828437600092019190915250929550610567945050505050565b604080519115158252519081900360200190f35b61028c610598565b4290565b6000546001600160a01b031633146103d1576040805162461bcd60e51b8152602060048201526013602482015272636f6e7472616374206f776e6572206f6e6c7960681b604482015290519081900360640190fd5b8060026000856001600160a01b03166001600160a01b03168152602001908152602001600020836040518082805190602001908083835b602083106104275780518252601f199092019160209182019101610408565b51815160209384036101000a60001901801990921691161790529201948552506040519384900301909220805460ff1916931515939093179092555050505050565b6000546001600160a01b031633146104be576040805162461bcd60e51b8152602060048201526013602482015272636f6e7472616374206f776e6572206f6e6c7960681b604482015290519081900360640190fd5b806001836040518082805190602001908083835b602083106104f15780518252601f1990920191602091820191016104d2565b51815160209384036101000a6000190180199092169116179052920194855250604051938490030190922080546001600160a01b0319166001600160a01b03949094169390931790925550505050565b80516020818301810180516001825292820191909301209152546001600160a01b031681565b6002602090815260009283526040909220815180830184018051928152908401929093019190912091525460ff1681565b6000546001600160a01b03168156fea2646970667358221220fd2f3d02199366ceccfef32899d56ad0537a25d71eb7290bd37d3a52ebbf2bd864736f6c63430007000033",
  "immutableReferences": {},
  "source": "pragma solidity ^0.7.0;\n\n// SPDX-License-Identifier: SimPL-2.0\n\nimport \"./ContractOwner.sol\";\n\ncontract Manager is ContractOwner {\n    mapping(string => address) public members;\n    \n    mapping(address => mapping(string => bool)) public userPermits;\n    \n    function setMember(string memory name, address member)\n        external ContractOwnerOnly {\n        \n        members[name] = member;\n    }\n    \n    function setUserPermit(address user, string memory permit,\n        bool enable) external ContractOwnerOnly {\n        \n        userPermits[user][permit] = enable;\n    }\n    \n    function getTimestamp() external view returns(uint256) {\n        return block.timestamp;\n    }\n}\n",
  "sourcePath": "/Users/fengzi/OnePiece/Ones/Source/GameDaoServer/GameDaoNFT/contracts/Manager.sol",
  "compiler": {
    "name": "solc",
    "version": "0.7.0+commit.9e61f92b.Emscripten.clang"
  },
  "schemaVersion": "3.3.4",
  "updatedAt": "2021-03-06T15:20:29.785Z",
  "networkType": "ethereum",
  "devdoc": {
    "kind": "dev",
    "methods": {},
    "version": 1
  },
  "userdoc": {
    "kind": "user",
    "methods": {},
    "version": 1
  }
}